{
  "_format": "hh-sol-artifact-1",
  "contractName": "CreatorPass",
  "sourceName": "contracts/CreatorPass.sol",
  "abi": [
    {
      "inputs": [
        {
          "internalType": "string",
          "name": "name",
          "type": "string"
        },
        {
          "internalType": "string",
          "name": "symbol",
          "type": "string"
        },
        {
          "internalType": "address",
          "name": "initialOwner",
          "type": "address"
        }
      ],
      "stateMutability": "nonpayable",
      "type": "constructor"
    },
    {
      "inputs": [
        {
          "internalType": "address",
          "name": "sender",
          "type": "address"
        },
        {
          "internalType": "uint256",
          "name": "tokenId",
          "type": "uint256"
        },
        {
          "internalType": "address",
          "name": "owner",
          "type": "address"
        }
      ],
      "name": "ERC721IncorrectOwner",
      "type": "error"
    },
    {
      "inputs": [
        {
          "internalType": "address",
          "name": "operator",
          "type": "address"
        },
        {
          "internalType": "uint256",
          "name": "tokenId",
          "type": "uint256"
        }
      ],
      "name": "ERC721InsufficientApproval",
      "type": "error"
    },
    {
      "inputs": [
        {
          "internalType": "address",
          "name": "approver",
          "type": "address"
        }
      ],
      "name": "ERC721InvalidApprover",
      "type": "error"
    },
    {
      "inputs": [
        {
          "internalType": "address",
          "name": "operator",
          "type": "address"
        }
      ],
      "name": "ERC721InvalidOperator",
      "type": "error"
    },
    {
      "inputs": [
        {
          "internalType": "address",
          "name": "owner",
          "type": "address"
        }
      ],
      "name": "ERC721InvalidOwner",
      "type": "error"
    },
    {
      "inputs": [
        {
          "internalType": "address",
          "name": "receiver",
          "type": "address"
        }
      ],
      "name": "ERC721InvalidReceiver",
      "type": "error"
    },
    {
      "inputs": [
        {
          "internalType": "address",
          "name": "sender",
          "type": "address"
        }
      ],
      "name": "ERC721InvalidSender",
      "type": "error"
    },
    {
      "inputs": [
        {
          "internalType": "uint256",
          "name": "tokenId",
          "type": "uint256"
        }
      ],
      "name": "ERC721NonexistentToken",
      "type": "error"
    },
    {
      "inputs": [
        {
          "internalType": "address",
          "name": "owner",
          "type": "address"
        }
      ],
      "name": "OwnableInvalidOwner",
      "type": "error"
    },
    {
      "inputs": [
        {
          "internalType": "address",
          "name": "account",
          "type": "address"
        }
      ],
      "name": "OwnableUnauthorizedAccount",
      "type": "error"
    },
    {
      "anonymous": false,
      "inputs": [
        {
          "indexed": true,
          "internalType": "address",
          "name": "owner",
          "type": "address"
        },
        {
          "indexed": true,
          "internalType": "address",
          "name": "approved",
          "type": "address"
        },
        {
          "indexed": true,
          "internalType": "uint256",
          "name": "tokenId",
          "type": "uint256"
        }
      ],
      "name": "Approval",
      "type": "event"
    },
    {
      "anonymous": false,
      "inputs": [
        {
          "indexed": true,
          "internalType": "address",
          "name": "owner",
          "type": "address"
        },
        {
          "indexed": true,
          "internalType": "address",
          "name": "operator",
          "type": "address"
        },
        {
          "indexed": false,
          "internalType": "bool",
          "name": "approved",
          "type": "bool"
        }
      ],
      "name": "ApprovalForAll",
      "type": "event"
    },
    {
      "anonymous": false,
      "inputs": [
        {
          "indexed": false,
          "internalType": "uint256",
          "name": "_fromTokenId",
          "type": "uint256"
        },
        {
          "indexed": false,
          "internalType": "uint256",
          "name": "_toTokenId",
          "type": "uint256"
        }
      ],
      "name": "BatchMetadataUpdate",
      "type": "event"
    },
    {
      "anonymous": false,
      "inputs": [
        {
          "indexed": false,
          "internalType": "uint256",
          "name": "_tokenId",
          "type": "uint256"
        }
      ],
      "name": "MetadataUpdate",
      "type": "event"
    },
    {
      "anonymous": false,
      "inputs": [
        {
          "indexed": true,
          "internalType": "address",
          "name": "previousOwner",
          "type": "address"
        },
        {
          "indexed": true,
          "internalType": "address",
          "name": "newOwner",
          "type": "address"
        }
      ],
      "name": "OwnershipTransferred",
      "type": "event"
    },
    {
      "anonymous": false,
      "inputs": [
        {
          "indexed": true,
          "internalType": "address",
          "name": "from",
          "type": "address"
        },
        {
          "indexed": true,
          "internalType": "address",
          "name": "to",
          "type": "address"
        },
        {
          "indexed": true,
          "internalType": "uint256",
          "name": "tokenId",
          "type": "uint256"
        }
      ],
      "name": "Transfer",
      "type": "event"
    },
    {
      "inputs": [
        {
          "internalType": "address",
          "name": "to",
          "type": "address"
        },
        {
          "internalType": "uint256",
          "name": "tokenId",
          "type": "uint256"
        }
      ],
      "name": "approve",
      "outputs": [],
      "stateMutability": "nonpayable",
      "type": "function"
    },
    {
      "inputs": [
        {
          "internalType": "address",
          "name": "owner",
          "type": "address"
        }
      ],
      "name": "balanceOf",
      "outputs": [
        {
          "internalType": "uint256",
          "name": "",
          "type": "uint256"
        }
      ],
      "stateMutability": "view",
      "type": "function"
    },
    {
      "inputs": [
        {
          "internalType": "uint256",
          "name": "tokenId",
          "type": "uint256"
        }
      ],
      "name": "getApproved",
      "outputs": [
        {
          "internalType": "address",
          "name": "",
          "type": "address"
        }
      ],
      "stateMutability": "view",
      "type": "function"
    },
    {
      "inputs": [
        {
          "internalType": "address",
          "name": "owner",
          "type": "address"
        },
        {
          "internalType": "address",
          "name": "operator",
          "type": "address"
        }
      ],
      "name": "isApprovedForAll",
      "outputs": [
        {
          "internalType": "bool",
          "name": "",
          "type": "bool"
        }
      ],
      "stateMutability": "view",
      "type": "function"
    },
    {
      "inputs": [],
      "name": "name",
      "outputs": [
        {
          "internalType": "string",
          "name": "",
          "type": "string"
        }
      ],
      "stateMutability": "view",
      "type": "function"
    },
    {
      "inputs": [],
      "name": "owner",
      "outputs": [
        {
          "internalType": "address",
          "name": "",
          "type": "address"
        }
      ],
      "stateMutability": "view",
      "type": "function"
    },
    {
      "inputs": [
        {
          "internalType": "uint256",
          "name": "tokenId",
          "type": "uint256"
        }
      ],
      "name": "ownerOf",
      "outputs": [
        {
          "internalType": "address",
          "name": "",
          "type": "address"
        }
      ],
      "stateMutability": "view",
      "type": "function"
    },
    {
      "inputs": [],
      "name": "renounceOwnership",
      "outputs": [],
      "stateMutability": "nonpayable",
      "type": "function"
    },
    {
      "inputs": [
        {
          "internalType": "address",
          "name": "to",
          "type": "address"
        },
        {
          "internalType": "string",
          "name": "uri",
          "type": "string"
        }
      ],
      "name": "safeMint",
      "outputs": [],
      "stateMutability": "nonpayable",
      "type": "function"
    },
    {
      "inputs": [
        {
          "internalType": "address",
          "name": "from",
          "type": "address"
        },
        {
          "internalType": "address",
          "name": "to",
          "type": "address"
        },
        {
          "internalType": "uint256",
          "name": "tokenId",
          "type": "uint256"
        }
      ],
      "name": "safeTransferFrom",
      "outputs": [],
      "stateMutability": "nonpayable",
      "type": "function"
    },
    {
      "inputs": [
        {
          "internalType": "address",
          "name": "from",
          "type": "address"
        },
        {
          "internalType": "address",
          "name": "to",
          "type": "address"
        },
        {
          "internalType": "uint256",
          "name": "tokenId",
          "type": "uint256"
        },
        {
          "internalType": "bytes",
          "name": "data",
          "type": "bytes"
        }
      ],
      "name": "safeTransferFrom",
      "outputs": [],
      "stateMutability": "nonpayable",
      "type": "function"
    },
    {
      "inputs": [
        {
          "internalType": "address",
          "name": "operator",
          "type": "address"
        },
        {
          "internalType": "bool",
          "name": "approved",
          "type": "bool"
        }
      ],
      "name": "setApprovalForAll",
      "outputs": [],
      "stateMutability": "nonpayable",
      "type": "function"
    },
    {
      "inputs": [
        {
          "internalType": "bytes4",
          "name": "interfaceId",
          "type": "bytes4"
        }
      ],
      "name": "supportsInterface",
      "outputs": [
        {
          "internalType": "bool",
          "name": "",
          "type": "bool"
        }
      ],
      "stateMutability": "view",
      "type": "function"
    },
    {
      "inputs": [],
      "name": "symbol",
      "outputs": [
        {
          "internalType": "string",
          "name": "",
          "type": "string"
        }
      ],
      "stateMutability": "view",
      "type": "function"
    },
    {
      "inputs": [],
      "name": "tokenId",
      "outputs": [
        {
          "internalType": "uint256",
          "name": "",
          "type": "uint256"
        }
      ],
      "stateMutability": "view",
      "type": "function"
    },
    {
      "inputs": [
        {
          "internalType": "uint256",
          "name": "tokenId",
          "type": "uint256"
        }
      ],
      "name": "tokenURI",
      "outputs": [
        {
          "internalType": "string",
          "name": "",
          "type": "string"
        }
      ],
      "stateMutability": "view",
      "type": "function"
    },
    {
      "inputs": [
        {
          "internalType": "address",
          "name": "from",
          "type": "address"
        },
        {
          "internalType": "address",
          "name": "to",
          "type": "address"
        },
        {
          "internalType": "uint256",
          "name": "tokenId",
          "type": "uint256"
        }
      ],
      "name": "transferFrom",
      "outputs": [],
      "stateMutability": "nonpayable",
      "type": "function"
    },
    {
      "inputs": [
        {
          "internalType": "address",
          "name": "newOwner",
          "type": "address"
        }
      ],
      "name": "transferOwnership",
      "outputs": [],
      "stateMutability": "nonpayable",
      "type": "function"
    }
  ],
  "bytecode": "0x608060405234801561001057600080fd5b50604051612dba380380612dba83398181016040528101906100329190610382565b8083838160009081610044919061062e565b508060019081610054919061062e565b505050600073ffffffffffffffffffffffffffffffffffffffff168173ffffffffffffffffffffffffffffffffffffffff16036100c95760006040517f1e4fbdf70000000000000000000000000000000000000000000000000000000081526004016100c0919061070f565b60405180910390fd5b6100d8816100e960201b60201c565b50600160088190555050505061072a565b6000600760009054906101000a900473ffffffffffffffffffffffffffffffffffffffff16905081600760006101000a81548173ffffffffffffffffffffffffffffffffffffffff021916908373ffffffffffffffffffffffffffffffffffffffff1602179055508173ffffffffffffffffffffffffffffffffffffffff168173ffffffffffffffffffffffffffffffffffffffff167f8be0079c531659141344cd1fd0a4f28419497f9722a3daafe3b4186f6b6457e060405160405180910390a35050565b6000604051905090565b600080fd5b600080fd5b600080fd5b600080fd5b6000601f19601f8301169050919050565b7f4e487b7100000000000000000000000000000000000000000000000000000000600052604160045260246000fd5b610216826101cd565b810181811067ffffffffffffffff82111715610235576102346101de565b5b80604052505050565b60006102486101af565b9050610254828261020d565b919050565b600067ffffffffffffffff821115610274576102736101de565b5b61027d826101cd565b9050602081019050919050565b60005b838110156102a857808201518184015260208101905061028d565b60008484015250505050565b60006102c76102c284610259565b61023e565b9050828152602081018484840111156102e3576102e26101c8565b5b6102ee84828561028a565b509392505050565b600082601f83011261030b5761030a6101c3565b5b815161031b8482602086016102b4565b91505092915050565b600073ffffffffffffffffffffffffffffffffffffffff82169050919050565b600061034f82610324565b9050919050565b61035f81610344565b811461036a57600080fd5b50565b60008151905061037c81610356565b92915050565b60008060006060848603121561039b5761039a6101b9565b5b600084015167ffffffffffffffff8111156103b9576103b86101be565b5b6103c5868287016102f6565b935050602084015167ffffffffffffffff8111156103e6576103e56101be565b5b6103f2868287016102f6565b92505060406104038682870161036d565b9150509250925092565b600081519050919050565b7f4e487b7100000000000000000000000000000000000000000000000000000000600052602260045260246000fd5b6000600282049050600182168061045f57607f821691505b60208210810361047257610471610418565b5b50919050565b60008190508160005260206000209050919050565b60006020601f8301049050919050565b600082821b905092915050565b6000600883026104da7fffffffffffffffffffffffffffffffffffffffffffffffffffffffffffffffff8261049d565b6104e4868361049d565b95508019841693508086168417925050509392505050565b6000819050919050565b6000819050919050565b600061052b610526610521846104fc565b610506565b6104fc565b9050919050565b6000819050919050565b61054583610510565b61055961055182610532565b8484546104aa565b825550505050565b600090565b61056e610561565b61057981848461053c565b505050565b5b8181101561059d57610592600082610566565b60018101905061057f565b5050565b601f8211156105e2576105b381610478565b6105bc8461048d565b810160208510156105cb578190505b6105df6105d78561048d565b83018261057e565b50505b505050565b600082821c905092915050565b6000610605600019846008026105e7565b1980831691505092915050565b600061061e83836105f4565b9150826002028217905092915050565b6106378261040d565b67ffffffffffffffff8111156106505761064f6101de565b5b61065a8254610447565b6106658282856105a1565b600060209050601f8311600181146106985760008415610686578287015190505b6106908582610612565b8655506106f8565b601f1984166106a686610478565b60005b828110156106ce578489015182556001820191506020850194506020810190506106a9565b868310156106eb57848901516106e7601f8916826105f4565b8355505b6001600288020188555050505b505050505050565b61070981610344565b82525050565b60006020820190506107246000830184610700565b92915050565b612681806107396000396000f3fe608060405234801561001057600080fd5b50600436106101165760003560e01c8063715018a6116100a2578063b88d4fde11610071578063b88d4fde146102cd578063c87b56dd146102e9578063d204c45e14610319578063e985e9c514610335578063f2fde38b1461036557610116565b8063715018a61461026b5780638da5cb5b1461027557806395d89b4114610293578063a22cb465146102b157610116565b806317d70f7c116100e957806317d70f7c146101b557806323b872dd146101d357806342842e0e146101ef5780636352211e1461020b57806370a082311461023b57610116565b806301ffc9a71461011b57806306fdde031461014b578063081812fc14610169578063095ea7b314610199575b600080fd5b61013560048036038101906101309190611aed565b610381565b6040516101429190611b35565b60405180910390f35b6101536103e2565b6040516101609190611be0565b60405180910390f35b610183600480360381019061017e9190611c38565b610474565b6040516101909190611ca6565b60405180910390f35b6101b360048036038101906101ae9190611ced565b610490565b005b6101bd6104a6565b6040516101ca9190611d3c565b60405180910390f35b6101ed60048036038101906101e89190611d57565b6104ac565b005b61020960048036038101906102049190611d57565b6105ae565b005b61022560048036038101906102209190611c38565b6105ce565b6040516102329190611ca6565b60405180910390f35b61025560048036038101906102509190611daa565b6105e0565b6040516102629190611d3c565b60405180910390f35b61027361069a565b005b61027d6106ae565b60405161028a9190611ca6565b60405180910390f35b61029b6106d8565b6040516102a89190611be0565b60405180910390f35b6102cb60048036038101906102c69190611e03565b61076a565b005b6102e760048036038101906102e29190611f78565b610780565b005b61030360048036038101906102fe9190611c38565b6107a5565b6040516103109190611be0565b60405180910390f35b610333600480360381019061032e919061209c565b6108b8565b005b61034f600480360381019061034a91906120f8565b6108f6565b60405161035c9190611b35565b60405180910390f35b61037f600480360381019061037a9190611daa565b61098a565b005b6000634906490660e01b7bffffffffffffffffffffffffffffffffffffffffffffffffffffffff1916827bffffffffffffffffffffffffffffffffffffffffffffffffffffffff191614806103db57506103da82610a10565b5b9050919050565b6060600080546103f190612167565b80601f016020809104026020016040519081016040528092919081815260200182805461041d90612167565b801561046a5780601f1061043f5761010080835404028352916020019161046a565b820191906000526020600020905b81548152906001019060200180831161044d57829003601f168201915b5050505050905090565b600061047f82610af2565b5061048982610b7a565b9050919050565b6104a2828261049d610bb7565b610bbf565b5050565b60085481565b600073ffffffffffffffffffffffffffffffffffffffff168273ffffffffffffffffffffffffffffffffffffffff160361051e5760006040517f64a0ae920000000000000000000000000000000000000000000000000000000081526004016105159190611ca6565b60405180910390fd5b6000610532838361052d610bb7565b610bd1565b90508373ffffffffffffffffffffffffffffffffffffffff168173ffffffffffffffffffffffffffffffffffffffff16146105a8578382826040517f64283d7b00000000000000000000000000000000000000000000000000000000815260040161059f93929190612198565b60405180910390fd5b50505050565b6105c983838360405180602001604052806000815250610780565b505050565b60006105d982610af2565b9050919050565b60008073ffffffffffffffffffffffffffffffffffffffff168273ffffffffffffffffffffffffffffffffffffffff16036106535760006040517f89c62b6400000000000000000000000000000000000000000000000000000000815260040161064a9190611ca6565b60405180910390fd5b600360008373ffffffffffffffffffffffffffffffffffffffff1673ffffffffffffffffffffffffffffffffffffffff168152602001908152602001600020549050919050565b6106a2610deb565b6106ac6000610e72565b565b6000600760009054906101000a900473ffffffffffffffffffffffffffffffffffffffff16905090565b6060600180546106e790612167565b80601f016020809104026020016040519081016040528092919081815260200182805461071390612167565b80156107605780601f1061073557610100808354040283529160200191610760565b820191906000526020600020905b81548152906001019060200180831161074357829003601f168201915b5050505050905090565b61077c610775610bb7565b8383610f38565b5050565b61078b8484846104ac565b61079f610796610bb7565b858585856110a7565b50505050565b60606107b082610af2565b5060006006600084815260200190815260200160002080546107d190612167565b80601f01602080910402602001604051908101604052809291908181526020018280546107fd90612167565b801561084a5780601f1061081f5761010080835404028352916020019161084a565b820191906000526020600020905b81548152906001019060200180831161082d57829003601f168201915b50505050509050600061085b611258565b905060008151036108705781925050506108b3565b6000825111156108a557808260405160200161088d92919061220b565b604051602081830303815290604052925050506108b3565b6108ae8461126f565b925050505b919050565b6108c0610deb565b6108cc826008546112d8565b6108d8600854826112f6565b6001600860008282546108eb919061225e565b925050819055505050565b6000600560008473ffffffffffffffffffffffffffffffffffffffff1673ffffffffffffffffffffffffffffffffffffffff16815260200190815260200160002060008373ffffffffffffffffffffffffffffffffffffffff1673ffffffffffffffffffffffffffffffffffffffff16815260200190815260200160002060009054906101000a900460ff16905092915050565b610992610deb565b600073ffffffffffffffffffffffffffffffffffffffff168173ffffffffffffffffffffffffffffffffffffffff1603610a045760006040517f1e4fbdf70000000000000000000000000000000000000000000000000000000081526004016109fb9190611ca6565b60405180910390fd5b610a0d81610e72565b50565b60007f80ac58cd000000000000000000000000000000000000000000000000000000007bffffffffffffffffffffffffffffffffffffffffffffffffffffffff1916827bffffffffffffffffffffffffffffffffffffffffffffffffffffffff19161480610adb57507f5b5e139f000000000000000000000000000000000000000000000000000000007bffffffffffffffffffffffffffffffffffffffffffffffffffffffff1916827bffffffffffffffffffffffffffffffffffffffffffffffffffffffff1916145b80610aeb5750610aea82611352565b5b9050919050565b600080610afe836113bc565b9050600073ffffffffffffffffffffffffffffffffffffffff168173ffffffffffffffffffffffffffffffffffffffff1603610b7157826040517f7e273289000000000000000000000000000000000000000000000000000000008152600401610b689190611d3c565b60405180910390fd5b80915050919050565b60006004600083815260200190815260200160002060009054906101000a900473ffffffffffffffffffffffffffffffffffffffff169050919050565b600033905090565b610bcc83838360016113f9565b505050565b600080610bdd846113bc565b9050600073ffffffffffffffffffffffffffffffffffffffff168373ffffffffffffffffffffffffffffffffffffffff1614610c1f57610c1e8184866115be565b5b600073ffffffffffffffffffffffffffffffffffffffff168173ffffffffffffffffffffffffffffffffffffffff1614610cb057610c616000856000806113f9565b6001600360008373ffffffffffffffffffffffffffffffffffffffff1673ffffffffffffffffffffffffffffffffffffffff168152602001908152602001600020600082825403925050819055505b600073ffffffffffffffffffffffffffffffffffffffff168573ffffffffffffffffffffffffffffffffffffffff1614610d33576001600360008773ffffffffffffffffffffffffffffffffffffffff1673ffffffffffffffffffffffffffffffffffffffff168152602001908152602001600020600082825401925050819055505b846002600086815260200190815260200160002060006101000a81548173ffffffffffffffffffffffffffffffffffffffff021916908373ffffffffffffffffffffffffffffffffffffffff160217905550838573ffffffffffffffffffffffffffffffffffffffff168273ffffffffffffffffffffffffffffffffffffffff167fddf252ad1be2c89b69c2b068fc378daa952ba7f163c4a11628f55a4df523b3ef60405160405180910390a4809150509392505050565b610df3610bb7565b73ffffffffffffffffffffffffffffffffffffffff16610e116106ae565b73ffffffffffffffffffffffffffffffffffffffff1614610e7057610e34610bb7565b6040517f118cdaa7000000000000000000000000000000000000000000000000000000008152600401610e679190611ca6565b60405180910390fd5b565b6000600760009054906101000a900473ffffffffffffffffffffffffffffffffffffffff16905081600760006101000a81548173ffffffffffffffffffffffffffffffffffffffff021916908373ffffffffffffffffffffffffffffffffffffffff1602179055508173ffffffffffffffffffffffffffffffffffffffff168173ffffffffffffffffffffffffffffffffffffffff167f8be0079c531659141344cd1fd0a4f28419497f9722a3daafe3b4186f6b6457e060405160405180910390a35050565b600073ffffffffffffffffffffffffffffffffffffffff168273ffffffffffffffffffffffffffffffffffffffff1603610fa957816040517f5b08ba18000000000000000000000000000000000000000000000000000000008152600401610fa09190611ca6565b60405180910390fd5b80600560008573ffffffffffffffffffffffffffffffffffffffff1673ffffffffffffffffffffffffffffffffffffffff16815260200190815260200160002060008473ffffffffffffffffffffffffffffffffffffffff1673ffffffffffffffffffffffffffffffffffffffff16815260200190815260200160002060006101000a81548160ff0219169083151502179055508173ffffffffffffffffffffffffffffffffffffffff168373ffffffffffffffffffffffffffffffffffffffff167f17307eab39ab6107e8899845ad3d59bd9653f200f220920489ca2b5937696c318360405161109a9190611b35565b60405180910390a3505050565b60008373ffffffffffffffffffffffffffffffffffffffff163b1115611251578273ffffffffffffffffffffffffffffffffffffffff1663150b7a02868685856040518563ffffffff1660e01b815260040161110694939291906122e7565b6020604051808303816000875af192505050801561114257506040513d601f19601f8201168201806040525081019061113f9190612348565b60015b6111c6573d8060008114611172576040519150601f19603f3d011682016040523d82523d6000602084013e611177565b606091505b5060008151036111be57836040517f64a0ae920000000000000000000000000000000000000000000000000000000081526004016111b59190611ca6565b60405180910390fd5b805160208201fd5b63150b7a0260e01b7bffffffffffffffffffffffffffffffffffffffffffffffffffffffff1916817bffffffffffffffffffffffffffffffffffffffffffffffffffffffff19161461124f57836040517f64a0ae920000000000000000000000000000000000000000000000000000000081526004016112469190611ca6565b60405180910390fd5b505b5050505050565b606060405180602001604052806000815250905090565b606061127a82610af2565b506000611285611258565b905060008151116112a557604051806020016040528060008152506112d0565b806112af84611682565b6040516020016112c092919061220b565b6040516020818303038152906040525b915050919050565b6112f2828260405180602001604052806000815250611750565b5050565b806006600084815260200190815260200160002090816113169190612521565b507ff8e1a15aba9398e019f0b49df1a4fde98ee17ae345cb5f6b5e2c27f5033e8ce7826040516113469190611d3c565b60405180910390a15050565b60007f01ffc9a7000000000000000000000000000000000000000000000000000000007bffffffffffffffffffffffffffffffffffffffffffffffffffffffff1916827bffffffffffffffffffffffffffffffffffffffffffffffffffffffff1916149050919050565b60006002600083815260200190815260200160002060009054906101000a900473ffffffffffffffffffffffffffffffffffffffff169050919050565b80806114325750600073ffffffffffffffffffffffffffffffffffffffff168273ffffffffffffffffffffffffffffffffffffffff1614155b1561156657600061144284610af2565b9050600073ffffffffffffffffffffffffffffffffffffffff168373ffffffffffffffffffffffffffffffffffffffff16141580156114ad57508273ffffffffffffffffffffffffffffffffffffffff168173ffffffffffffffffffffffffffffffffffffffff1614155b80156114c057506114be81846108f6565b155b1561150257826040517fa9fbf51f0000000000000000000000000000000000000000000000000000000081526004016114f99190611ca6565b60405180910390fd5b811561156457838573ffffffffffffffffffffffffffffffffffffffff168273ffffffffffffffffffffffffffffffffffffffff167f8c5be1e5ebec7d5bd14f71427d1e84f3dd0314c0f7b2291e5b200ac8c7c3b92560405160405180910390a45b505b836004600085815260200190815260200160002060006101000a81548173ffffffffffffffffffffffffffffffffffffffff021916908373ffffffffffffffffffffffffffffffffffffffff16021790555050505050565b6115c9838383611774565b61167d57600073ffffffffffffffffffffffffffffffffffffffff168373ffffffffffffffffffffffffffffffffffffffff160361163e57806040517f7e2732890000000000000000000000000000000000000000000000000000000081526004016116359190611d3c565b60405180910390fd5b81816040517f177e802f0000000000000000000000000000000000000000000000000000000081526004016116749291906125f3565b60405180910390fd5b505050565b60606000600161169184611835565b01905060008167ffffffffffffffff8111156116b0576116af611e4d565b5b6040519080825280601f01601f1916602001820160405280156116e25781602001600182028036833780820191505090505b509050600082602083010190505b600115611745578080600190039150507f3031323334353637383961626364656600000000000000000000000000000000600a86061a8153600a85816117395761173861261c565b5b049450600085036116f0575b819350505050919050565b61175a8383611988565b61176f611765610bb7565b60008585856110a7565b505050565b60008073ffffffffffffffffffffffffffffffffffffffff168373ffffffffffffffffffffffffffffffffffffffff161415801561182c57508273ffffffffffffffffffffffffffffffffffffffff168473ffffffffffffffffffffffffffffffffffffffff1614806117ed57506117ec84846108f6565b5b8061182b57508273ffffffffffffffffffffffffffffffffffffffff1661181383610b7a565b73ffffffffffffffffffffffffffffffffffffffff16145b5b90509392505050565b600080600090507a184f03e93ff9f4daa797ed6e38ed64bf6a1f0100000000000000008310611893577a184f03e93ff9f4daa797ed6e38ed64bf6a1f01000000000000000083816118895761188861261c565b5b0492506040810190505b6d04ee2d6d415b85acef810000000083106118d0576d04ee2d6d415b85acef810000000083816118c6576118c561261c565b5b0492506020810190505b662386f26fc1000083106118ff57662386f26fc1000083816118f5576118f461261c565b5b0492506010810190505b6305f5e1008310611928576305f5e100838161191e5761191d61261c565b5b0492506008810190505b612710831061194d5761271083816119435761194261261c565b5b0492506004810190505b6064831061197057606483816119665761196561261c565b5b0492506002810190505b600a831061197f576001810190505b80915050919050565b600073ffffffffffffffffffffffffffffffffffffffff168273ffffffffffffffffffffffffffffffffffffffff16036119fa5760006040517f64a0ae920000000000000000000000000000000000000000000000000000000081526004016119f19190611ca6565b60405180910390fd5b6000611a0883836000610bd1565b9050600073ffffffffffffffffffffffffffffffffffffffff168173ffffffffffffffffffffffffffffffffffffffff1614611a7c5760006040517f73c6ac6e000000000000000000000000000000000000000000000000000000008152600401611a739190611ca6565b60405180910390fd5b505050565b6000604051905090565b600080fd5b600080fd5b60007fffffffff0000000000000000000000000000000000000000000000000000000082169050919050565b611aca81611a95565b8114611ad557600080fd5b50565b600081359050611ae781611ac1565b92915050565b600060208284031215611b0357611b02611a8b565b5b6000611b1184828501611ad8565b91505092915050565b60008115159050919050565b611b2f81611b1a565b82525050565b6000602082019050611b4a6000830184611b26565b92915050565b600081519050919050565b600082825260208201905092915050565b60005b83811015611b8a578082015181840152602081019050611b6f565b60008484015250505050565b6000601f19601f8301169050919050565b6000611bb282611b50565b611bbc8185611b5b565b9350611bcc818560208601611b6c565b611bd581611b96565b840191505092915050565b60006020820190508181036000830152611bfa8184611ba7565b905092915050565b6000819050919050565b611c1581611c02565b8114611c2057600080fd5b50565b600081359050611c3281611c0c565b92915050565b600060208284031215611c4e57611c4d611a8b565b5b6000611c5c84828501611c23565b91505092915050565b600073ffffffffffffffffffffffffffffffffffffffff82169050919050565b6000611c9082611c65565b9050919050565b611ca081611c85565b82525050565b6000602082019050611cbb6000830184611c97565b92915050565b611cca81611c85565b8114611cd557600080fd5b50565b600081359050611ce781611cc1565b92915050565b60008060408385031215611d0457611d03611a8b565b5b6000611d1285828601611cd8565b9250506020611d2385828601611c23565b9150509250929050565b611d3681611c02565b82525050565b6000602082019050611d516000830184611d2d565b92915050565b600080600060608486031215611d7057611d6f611a8b565b5b6000611d7e86828701611cd8565b9350506020611d8f86828701611cd8565b9250506040611da086828701611c23565b9150509250925092565b600060208284031215611dc057611dbf611a8b565b5b6000611dce84828501611cd8565b91505092915050565b611de081611b1a565b8114611deb57600080fd5b50565b600081359050611dfd81611dd7565b92915050565b60008060408385031215611e1a57611e19611a8b565b5b6000611e2885828601611cd8565b9250506020611e3985828601611dee565b9150509250929050565b600080fd5b600080fd5b7f4e487b7100000000000000000000000000000000000000000000000000000000600052604160045260246000fd5b611e8582611b96565b810181811067ffffffffffffffff82111715611ea457611ea3611e4d565b5b80604052505050565b6000611eb7611a81565b9050611ec38282611e7c565b919050565b600067ffffffffffffffff821115611ee357611ee2611e4d565b5b611eec82611b96565b9050602081019050919050565b82818337600083830152505050565b6000611f1b611f1684611ec8565b611ead565b905082815260208101848484011115611f3757611f36611e48565b5b611f42848285611ef9565b509392505050565b600082601f830112611f5f57611f5e611e43565b5b8135611f6f848260208601611f08565b91505092915050565b60008060008060808587031215611f9257611f91611a8b565b5b6000611fa087828801611cd8565b9450506020611fb187828801611cd8565b9350506040611fc287828801611c23565b925050606085013567ffffffffffffffff811115611fe357611fe2611a90565b5b611fef87828801611f4a565b91505092959194509250565b600067ffffffffffffffff82111561201657612015611e4d565b5b61201f82611b96565b9050602081019050919050565b600061203f61203a84611ffb565b611ead565b90508281526020810184848401111561205b5761205a611e48565b5b612066848285611ef9565b509392505050565b600082601f83011261208357612082611e43565b5b813561209384826020860161202c565b91505092915050565b600080604083850312156120b3576120b2611a8b565b5b60006120c185828601611cd8565b925050602083013567ffffffffffffffff8111156120e2576120e1611a90565b5b6120ee8582860161206e565b9150509250929050565b6000806040838503121561210f5761210e611a8b565b5b600061211d85828601611cd8565b925050602061212e85828601611cd8565b9150509250929050565b7f4e487b7100000000000000000000000000000000000000000000000000000000600052602260045260246000fd5b6000600282049050600182168061217f57607f821691505b60208210810361219257612191612138565b5b50919050565b60006060820190506121ad6000830186611c97565b6121ba6020830185611d2d565b6121c76040830184611c97565b949350505050565b600081905092915050565b60006121e582611b50565b6121ef81856121cf565b93506121ff818560208601611b6c565b80840191505092915050565b600061221782856121da565b915061222382846121da565b91508190509392505050565b7f4e487b7100000000000000000000000000000000000000000000000000000000600052601160045260246000fd5b600061226982611c02565b915061227483611c02565b925082820190508082111561228c5761228b61222f565b5b92915050565b600081519050919050565b600082825260208201905092915050565b60006122b982612292565b6122c3818561229d565b93506122d3818560208601611b6c565b6122dc81611b96565b840191505092915050565b60006080820190506122fc6000830187611c97565b6123096020830186611c97565b6123166040830185611d2d565b818103606083015261232881846122ae565b905095945050505050565b60008151905061234281611ac1565b92915050565b60006020828403121561235e5761235d611a8b565b5b600061236c84828501612333565b91505092915050565b60008190508160005260206000209050919050565b60006020601f8301049050919050565b600082821b905092915050565b6000600883026123d77fffffffffffffffffffffffffffffffffffffffffffffffffffffffffffffffff8261239a565b6123e1868361239a565b95508019841693508086168417925050509392505050565b6000819050919050565b600061241e61241961241484611c02565b6123f9565b611c02565b9050919050565b6000819050919050565b61243883612403565b61244c61244482612425565b8484546123a7565b825550505050565b600090565b612461612454565b61246c81848461242f565b505050565b5b8181101561249057612485600082612459565b600181019050612472565b5050565b601f8211156124d5576124a681612375565b6124af8461238a565b810160208510156124be578190505b6124d26124ca8561238a565b830182612471565b50505b505050565b600082821c905092915050565b60006124f8600019846008026124da565b1980831691505092915050565b600061251183836124e7565b9150826002028217905092915050565b61252a82611b50565b67ffffffffffffffff81111561254357612542611e4d565b5b61254d8254612167565b612558828285612494565b600060209050601f83116001811461258b5760008415612579578287015190505b6125838582612505565b8655506125eb565b601f19841661259986612375565b60005b828110156125c15784890151825560018201915060208501945060208101905061259c565b868310156125de57848901516125da601f8916826124e7565b8355505b6001600288020188555050505b505050505050565b60006040820190506126086000830185611c97565b6126156020830184611d2d565b9392505050565b7f4e487b7100000000000000000000000000000000000000000000000000000000600052601260045260246000fdfea2646970667358221220ca56c443dbdedc9847c6991a345361acc4bb616f36c7bf27eb43a2a3712e145764736f6c634300081c0033",
  "linkReferences": {},
  "deployedLinkReferences": {}
}